{
  "_format": "hh-sol-artifact-1",
  "contractName": "Raffle",
  "sourceName": "contracts/Raffle.sol",
  "abi": [
    {
      "inputs": [
        {
          "internalType": "address",
          "name": "vrfCoordinatorV2",
          "type": "address"
        },
        {
          "internalType": "uint256",
          "name": "enteranceFee",
          "type": "uint256"
        },
        {
          "internalType": "bytes32",
          "name": "gasLane",
          "type": "bytes32"
        },
        {
          "internalType": "uint64",
          "name": "subscriptionId",
          "type": "uint64"
        },
        {
          "internalType": "uint32",
          "name": "gasLimit",
          "type": "uint32"
        },
        {
          "internalType": "uint256",
          "name": "interval",
          "type": "uint256"
        }
      ],
      "stateMutability": "nonpayable",
      "type": "constructor"
    },
    {
      "inputs": [
        {
          "internalType": "address",
          "name": "have",
          "type": "address"
        },
        {
          "internalType": "address",
          "name": "want",
          "type": "address"
        }
      ],
      "name": "OnlyCoordinatorCanFulfill",
      "type": "error"
    },
    {
      "inputs": [],
      "name": "Raffle__NotEnoughEthEntered",
      "type": "error"
    },
    {
      "inputs": [],
      "name": "Raffle__NotOpen",
      "type": "error"
    },
    {
      "inputs": [],
      "name": "Raffle__TransferFailed",
      "type": "error"
    },
    {
      "inputs": [
        {
          "internalType": "uint256",
          "name": "currentBalance",
          "type": "uint256"
        },
        {
          "internalType": "uint256",
          "name": "numPlayers",
          "type": "uint256"
        },
        {
          "internalType": "uint256",
          "name": "raffleState",
          "type": "uint256"
        }
      ],
      "name": "Raffle__UpKeepNotNeeded",
      "type": "error"
    },
    {
      "anonymous": false,
      "inputs": [
        {
          "indexed": true,
          "internalType": "address",
          "name": "player",
          "type": "address"
        }
      ],
      "name": "RaffleEnter",
      "type": "event"
    },
    {
      "anonymous": false,
      "inputs": [
        {
          "indexed": true,
          "internalType": "uint256",
          "name": "requestId",
          "type": "uint256"
        }
      ],
      "name": "RequestedRaffleWinner",
      "type": "event"
    },
    {
      "anonymous": false,
      "inputs": [
        {
          "indexed": true,
          "internalType": "address",
          "name": "winner",
          "type": "address"
        }
      ],
      "name": "WinnerPicked",
      "type": "event"
    },
    {
      "inputs": [
        {
          "internalType": "bytes",
          "name": "",
          "type": "bytes"
        }
      ],
      "name": "checkUpkeep",
      "outputs": [
        {
          "internalType": "bool",
          "name": "upkeepNeeded",
          "type": "bool"
        },
        {
          "internalType": "bytes",
          "name": "",
          "type": "bytes"
        }
      ],
      "stateMutability": "view",
      "type": "function"
    },
    {
      "inputs": [],
      "name": "enterRaffle",
      "outputs": [],
      "stateMutability": "payable",
      "type": "function"
    },
    {
      "inputs": [],
      "name": "getEnteranceFee",
      "outputs": [
        {
          "internalType": "uint256",
          "name": "",
          "type": "uint256"
        }
      ],
      "stateMutability": "view",
      "type": "function"
    },
    {
      "inputs": [],
      "name": "getLatestTimestamp",
      "outputs": [
        {
          "internalType": "uint256",
          "name": "",
          "type": "uint256"
        }
      ],
      "stateMutability": "view",
      "type": "function"
    },
    {
      "inputs": [],
      "name": "getNumWords",
      "outputs": [
        {
          "internalType": "uint32",
          "name": "",
          "type": "uint32"
        }
      ],
      "stateMutability": "pure",
      "type": "function"
    },
    {
      "inputs": [],
      "name": "getNumberOfPlayers",
      "outputs": [
        {
          "internalType": "uint256",
          "name": "",
          "type": "uint256"
        }
      ],
      "stateMutability": "view",
      "type": "function"
    },
    {
      "inputs": [
        {
          "internalType": "uint256",
          "name": "index",
          "type": "uint256"
        }
      ],
      "name": "getPlayer",
      "outputs": [
        {
          "internalType": "address",
          "name": "",
          "type": "address"
        }
      ],
      "stateMutability": "view",
      "type": "function"
    },
    {
      "inputs": [],
      "name": "getRaffleState",
      "outputs": [
        {
          "internalType": "enum Raffle.RaffleType",
          "name": "",
          "type": "uint8"
        }
      ],
      "stateMutability": "view",
      "type": "function"
    },
    {
      "inputs": [],
      "name": "getRecentWinner",
      "outputs": [
        {
          "internalType": "address",
          "name": "",
          "type": "address"
        }
      ],
      "stateMutability": "view",
      "type": "function"
    },
    {
      "inputs": [],
      "name": "getRequestConfirmations",
      "outputs": [
        {
          "internalType": "uint16",
          "name": "",
          "type": "uint16"
        }
      ],
      "stateMutability": "pure",
      "type": "function"
    },
    {
      "inputs": [
        {
          "internalType": "bytes",
          "name": "",
          "type": "bytes"
        }
      ],
      "name": "performUpkeep",
      "outputs": [],
      "stateMutability": "nonpayable",
      "type": "function"
    },
    {
      "inputs": [
        {
          "internalType": "uint256",
          "name": "requestId",
          "type": "uint256"
        },
        {
          "internalType": "uint256[]",
          "name": "randomWords",
          "type": "uint256[]"
        }
      ],
      "name": "rawFulfillRandomWords",
      "outputs": [],
      "stateMutability": "nonpayable",
      "type": "function"
    }
  ],
  "bytecode": "0x610180604052600163ffffffff166101409063ffffffff168152503480156200002757600080fd5b506040516200178d3803806200178d83398181016040528101906200004d9190620002a9565b858073ffffffffffffffffffffffffffffffffffffffff1660808173ffffffffffffffffffffffffffffffffffffffff1681525050508460a081815250508573ffffffffffffffffffffffffffffffffffffffff1660c08173ffffffffffffffffffffffffffffffffffffffff16815250508360e081815250508267ffffffffffffffff166101008167ffffffffffffffff16815250508163ffffffff166101208163ffffffff16815250506000600160146101000a81548160ff0219169083600181111562000122576200012162000345565b5b02179055504260028190555080610160818152505050505050505062000374565b600080fd5b600073ffffffffffffffffffffffffffffffffffffffff82169050919050565b6000620001758262000148565b9050919050565b620001878162000168565b81146200019357600080fd5b50565b600081519050620001a7816200017c565b92915050565b6000819050919050565b620001c281620001ad565b8114620001ce57600080fd5b50565b600081519050620001e281620001b7565b92915050565b6000819050919050565b620001fd81620001e8565b81146200020957600080fd5b50565b6000815190506200021d81620001f2565b92915050565b600067ffffffffffffffff82169050919050565b620002428162000223565b81146200024e57600080fd5b50565b600081519050620002628162000237565b92915050565b600063ffffffff82169050919050565b620002838162000268565b81146200028f57600080fd5b50565b600081519050620002a38162000278565b92915050565b60008060008060008060c08789031215620002c957620002c862000143565b5b6000620002d989828a0162000196565b9650506020620002ec89828a01620001d1565b9550506040620002ff89828a016200020c565b94505060606200031289828a0162000251565b93505060806200032589828a0162000292565b92505060a06200033889828a01620001d1565b9150509295509295509295565b7f4e487b7100000000000000000000000000000000000000000000000000000000600052602160045260246000fd5b60805160a05160c05160e0516101005161012051610140516101605161139e620003ef60003960006107d901526000818161064e01526107690152600061062d0152600061060a015260006105e9015260006105ad01526000818161038901526107410152600081816102c9015261031d015261139e6000f3fe6080604052600436106100a75760003560e01c806353a2c19a1161006457806353a2c19a146101895780635f1b0fd8146101b45780636e04ff0d146101df578063e55ae4e81461021d578063f43b52cb1461025a578063fd6673f514610285576100a7565b8063115cbaf5146100ac5780631fe543e3146100d75780632cfcc539146101005780634585e33b1461010a578063473f1ddc14610133578063535bf50f1461015e575b600080fd5b3480156100b857600080fd5b506100c16102b0565b6040516100ce9190610bef565b60405180910390f35b3480156100e357600080fd5b506100fe60048036038101906100f99190610dad565b6102c7565b005b610108610387565b005b34801561011657600080fd5b50610131600480360381019061012c9190610ebe565b6104f6565b005b34801561013f57600080fd5b50610148610713565b6040516101559190610f48565b60405180910390f35b34801561016a57600080fd5b5061017361073d565b6040516101809190610f72565b60405180910390f35b34801561019557600080fd5b5061019e610765565b6040516101ab9190610fac565b60405180910390f35b3480156101c057600080fd5b506101c961078d565b6040516101d69190610fe4565b60405180910390f35b3480156101eb57600080fd5b5061020660048036038101906102019190610ebe565b610796565b6040516102149291906110a2565b60405180910390f35b34801561022957600080fd5b50610244600480360381019061023f91906110d2565b610843565b6040516102519190610f48565b60405180910390f35b34801561026657600080fd5b5061026f61088a565b60405161027c9190610f72565b60405180910390f35b34801561029157600080fd5b5061029a610894565b6040516102a79190610f72565b60405180910390f35b6000600160149054906101000a900460ff16905090565b7f000000000000000000000000000000000000000000000000000000000000000073ffffffffffffffffffffffffffffffffffffffff163373ffffffffffffffffffffffffffffffffffffffff161461037957337f00000000000000000000000000000000000000000000000000000000000000006040517f1cf993f40000000000000000000000000000000000000000000000000000000081526004016103709291906110ff565b60405180910390fd5b61038382826108a0565b5050565b7f00000000000000000000000000000000000000000000000000000000000000003410156103e1576040517f066d781f00000000000000000000000000000000000000000000000000000000815260040160405180910390fd5b600060018111156103f5576103f4610b78565b5b600160149054906101000a900460ff16600181111561041757610416610b78565b5b1461044e576040517f1425571c00000000000000000000000000000000000000000000000000000000815260040160405180910390fd5b6000339080600181540180825580915050600190039060005260206000200160009091909190916101000a81548173ffffffffffffffffffffffffffffffffffffffff021916908373ffffffffffffffffffffffffffffffffffffffff1602179055503373ffffffffffffffffffffffffffffffffffffffff167f0805e1d667bddb8a95f0f09880cf94f403fb596ce79928d9f29b74203ba284d460405160405180910390a2565b600061051060405180602001604052806000815250610796565b5090508061057f5747600080549050600160149054906101000a900460ff16600181111561054157610540610b78565b5b6040517f3a8d608600000000000000000000000000000000000000000000000000000000815260040161057693929190611128565b60405180910390fd5b60018060146101000a81548160ff021916908360018111156105a4576105a3610b78565b5b021790555060007f000000000000000000000000000000000000000000000000000000000000000073ffffffffffffffffffffffffffffffffffffffff16635d3b1d307f00000000000000000000000000000000000000000000000000000000000000007f000000000000000000000000000000000000000000000000000000000000000060037f00000000000000000000000000000000000000000000000000000000000000007f00000000000000000000000000000000000000000000000000000000000000006040518663ffffffff1660e01b815260040161068d95949392919061119b565b602060405180830381600087803b1580156106a757600080fd5b505af11580156106bb573d6000803e3d6000fd5b505050506040513d601f19601f820116820180604052508101906106df9190611203565b9050807fcd6e45c8998311cab7e9d4385596cac867e20a0587194b954fa3a731c93ce78b60405160405180910390a2505050565b6000600160009054906101000a900473ffffffffffffffffffffffffffffffffffffffff16905090565b60007f0000000000000000000000000000000000000000000000000000000000000000905090565b60007f0000000000000000000000000000000000000000000000000000000000000000905090565b60006003905090565b600060606000600160149054906101000a900460ff1660018111156107be576107bd610b78565b5b600060018111156107d2576107d1610b78565b5b14905060007f000000000000000000000000000000000000000000000000000000000000000060025442610806919061125f565b119050600080600080549050119050600080471190508380156108265750825b801561082f5750815b80156108385750805b955050505050915091565b600080828154811061085857610857611293565b5b9060005260206000200160009054906101000a900473ffffffffffffffffffffffffffffffffffffffff169050919050565b6000600254905090565b60008080549050905090565b60008080549050826000815181106108bb576108ba611293565b5b60200260200101516108cd91906112f1565b905060008082815481106108e4576108e3611293565b5b9060005260206000200160009054906101000a900473ffffffffffffffffffffffffffffffffffffffff16905080600160006101000a81548173ffffffffffffffffffffffffffffffffffffffff021916908373ffffffffffffffffffffffffffffffffffffffff16021790555060008173ffffffffffffffffffffffffffffffffffffffff164760405161097890611353565b60006040518083038185875af1925050503d80600081146109b5576040519150601f19603f3d011682016040523d82523d6000602084013e6109ba565b606091505b50509050806109f5576040517fa1d04b3900000000000000000000000000000000000000000000000000000000815260040160405180910390fd5b8173ffffffffffffffffffffffffffffffffffffffff167f5b690ec4a06fe979403046eaeea5b3ce38524683c3001f662c8b5a829632f7df60405160405180910390a26000600160146101000a81548160ff02191690836001811115610a5e57610a5d610b78565b5b0217905550600067ffffffffffffffff811115610a7e57610a7d610c6a565b5b604051908082528060200260200182016040528015610aac5781602001602082028036833780820191505090505b5060009080519060200190610ac2929190610ad1565b50426002819055505050505050565b828054828255906000526020600020908101928215610b4a579160200282015b82811115610b495782518260006101000a81548173ffffffffffffffffffffffffffffffffffffffff021916908373ffffffffffffffffffffffffffffffffffffffff16021790555091602001919060010190610af1565b5b509050610b579190610b5b565b5090565b5b80821115610b74576000816000905550600101610b5c565b5090565b7f4e487b7100000000000000000000000000000000000000000000000000000000600052602160045260246000fd5b60028110610bb857610bb7610b78565b5b50565b6000819050610bc982610ba7565b919050565b6000610bd982610bbb565b9050919050565b610be981610bce565b82525050565b6000602082019050610c046000830184610be0565b92915050565b6000604051905090565b600080fd5b600080fd5b6000819050919050565b610c3181610c1e565b8114610c3c57600080fd5b50565b600081359050610c4e81610c28565b92915050565b600080fd5b6000601f19601f8301169050919050565b7f4e487b7100000000000000000000000000000000000000000000000000000000600052604160045260246000fd5b610ca282610c59565b810181811067ffffffffffffffff82111715610cc157610cc0610c6a565b5b80604052505050565b6000610cd4610c0a565b9050610ce08282610c99565b919050565b600067ffffffffffffffff821115610d0057610cff610c6a565b5b602082029050602081019050919050565b600080fd5b6000610d29610d2484610ce5565b610cca565b90508083825260208201905060208402830185811115610d4c57610d4b610d11565b5b835b81811015610d755780610d618882610c3f565b845260208401935050602081019050610d4e565b5050509392505050565b600082601f830112610d9457610d93610c54565b5b8135610da4848260208601610d16565b91505092915050565b60008060408385031215610dc457610dc3610c14565b5b6000610dd285828601610c3f565b925050602083013567ffffffffffffffff811115610df357610df2610c19565b5b610dff85828601610d7f565b9150509250929050565b600080fd5b600067ffffffffffffffff821115610e2957610e28610c6a565b5b610e3282610c59565b9050602081019050919050565b82818337600083830152505050565b6000610e61610e5c84610e0e565b610cca565b905082815260208101848484011115610e7d57610e7c610e09565b5b610e88848285610e3f565b509392505050565b600082601f830112610ea557610ea4610c54565b5b8135610eb5848260208601610e4e565b91505092915050565b600060208284031215610ed457610ed3610c14565b5b600082013567ffffffffffffffff811115610ef257610ef1610c19565b5b610efe84828501610e90565b91505092915050565b600073ffffffffffffffffffffffffffffffffffffffff82169050919050565b6000610f3282610f07565b9050919050565b610f4281610f27565b82525050565b6000602082019050610f5d6000830184610f39565b92915050565b610f6c81610c1e565b82525050565b6000602082019050610f876000830184610f63565b92915050565b600063ffffffff82169050919050565b610fa681610f8d565b82525050565b6000602082019050610fc16000830184610f9d565b92915050565b600061ffff82169050919050565b610fde81610fc7565b82525050565b6000602082019050610ff96000830184610fd5565b92915050565b60008115159050919050565b61101481610fff565b82525050565b600081519050919050565b600082825260208201905092915050565b60005b83811015611054578082015181840152602081019050611039565b83811115611063576000848401525b50505050565b60006110748261101a565b61107e8185611025565b935061108e818560208601611036565b61109781610c59565b840191505092915050565b60006040820190506110b7600083018561100b565b81810360208301526110c98184611069565b90509392505050565b6000602082840312156110e8576110e7610c14565b5b60006110f684828501610c3f565b91505092915050565b60006040820190506111146000830185610f39565b6111216020830184610f39565b9392505050565b600060608201905061113d6000830186610f63565b61114a6020830185610f63565b6111576040830184610f63565b949350505050565b6000819050919050565b6111728161115f565b82525050565b600067ffffffffffffffff82169050919050565b61119581611178565b82525050565b600060a0820190506111b06000830188611169565b6111bd602083018761118c565b6111ca6040830186610fd5565b6111d76060830185610f9d565b6111e46080830184610f9d565b9695505050505050565b6000815190506111fd81610c28565b92915050565b60006020828403121561121957611218610c14565b5b6000611227848285016111ee565b91505092915050565b7f4e487b7100000000000000000000000000000000000000000000000000000000600052601160045260246000fd5b600061126a82610c1e565b915061127583610c1e565b92508282101561128857611287611230565b5b828203905092915050565b7f4e487b7100000000000000000000000000000000000000000000000000000000600052603260045260246000fd5b7f4e487b7100000000000000000000000000000000000000000000000000000000600052601260045260246000fd5b60006112fc82610c1e565b915061130783610c1e565b925082611317576113166112c2565b5b828206905092915050565b600081905092915050565b50565b600061133d600083611322565b91506113488261132d565b600082019050919050565b600061135e82611330565b915081905091905056fea264697066735822122014fad22f6b57579c2cf934103f77101c7727d94ca272e990fc0c14d7e0bcc8ba64736f6c63430008090033",
  "linkReferences": {},
  "deployedLinkReferences": {}
}